:020000040800F2
:105000000050002081620008256200082B62000821
:1050100031620008376200083D62000800000000AD
:1050200000000000000000000000000043620008D3
:105030004F620008000000005B6200086762000821
:10504000C9620008C9620008C9620008C962000894
:10505000C9620008C9620008C9620008C962000884
:10506000C9620008C9620008C9620008C962000874
:10507000C9620008C9620008C9620008C962000864
:10508000C9620008C9620008C9620008C962000854
:10509000C9620008C9620008C9620008C962000844
:1050A000C9620008C9620008C9620008C962000834
:1050B000C9620008C9620008C9620008C962000824
:1050C000C9620008C9620008C9620008C962000814
:1050D000C9620008C9620008C9620008C962000804
:1050E000C9620008C9620008C96200080000000027
:1050F00000000000000000000000000000000000B0
:0C51000000000000000000005FF808F153
:1051100010B5054C237833B9044B13B10448AFF3F1
:1051200000800123237010BD0C000020000000004F
:105130005885000808B5034B1BB103490348AFF37A
:10514000008008BD00000000100000205885000805
:10515000034613F8012B002AFBD1181A01387047B7
:1051600081F0004102E000BF83F0004330B54FEA18
:1051700041044FEA430594EA050F08BF90EA020F85
:105180001FBF54EA000C55EA020C7FEA645C7FEA18
:10519000655C00F0E2804FEA5454D4EB5555B8BF3B
:1051A0006D420CDD2C4480EA020281EA030382EAAC
:1051B000000083EA010180EA020281EA0303362D3E
:1051C00088BF30BD11F0004F4FEA01314FF4801C11
:1051D0004CEA113102D0404261EB410113F0004F23
:1051E0004FEA03334CEA133302D0524263EB4303DA
:1051F00094EA050F00F0A780A4F10104D5F1200E78
:105200000DDB02FA0EFC22FA05F2801841F10001D2
:1052100003FA0EF2801843FA05F359410EE0A5F1A6
:1052200020050EF1200E012A03FA0EFC28BF4CF0D7
:10523000020C43FA05F3C01851EBE37101F000458D
:1052400007D54FF0000EDCF1000C7EEB00006EEB9A
:105250000101B1F5801F1BD3B1F5001F0CD3490824
:105260005FEA30004FEA3C0C04F101044FEA44527B
:1052700012F5800F80F09A80BCF1004F08BF5FEA02
:10528000500C50F1000041EB045141EA050130BDE2
:105290005FEA4C0C404141EB0101013C28BFB1F5F4
:1052A000801FE9D291F0000F04BF01460020B1FA3F
:1052B00081F308BF2033A3F10B03B3F120020CDA12
:1052C0000C3208DD02F1140CC2F10C0201FA0CF0F0
:1052D00021FA02F10CE002F11402D8BFC2F1200C55
:1052E00001FA02F120FA0CFCDCBF41EA0C0190400B
:1052F000E41AA2BF01EB0451294330BD6FEA040454
:105300001F3C1CDA0C340EDC04F11404C4F120023E
:1053100020FA04F001FA02F340EA030021FA04F350
:1053200045EA030130BDC4F10C04C4F1200220FAA7
:1053300002F001FA04F340EA0300294630BD21FAE5
:1053400004F0294630BD94F0000F83F4801306BFAB
:1053500081F480110134013D4EE77FEA645C18BF9F
:105360007FEA655C29D094EA050F08BF90EA020F36
:1053700005D054EA000C04BF1946104630BD91EA2E
:10538000030F1EBF0021002030BD5FEA545C05D131
:105390004000494128BF41F0004130BD14F5800470
:1053A0003CBF01F5801130BD01F0004545F0FE41E4
:1053B00041F470014FF0000030BD7FEA645C1ABF19
:1053C000194610467FEA655C1CBF0B46024650EA50
:1053D000013406BF52EA033591EA030F41F400217C
:1053E00030BD00BF90F0000F04BF0021704730B502
:1053F0004FF4806404F132044FF000054FF00001D7
:1054000050E700BF90F0000F04BF0021704730B597
:105410004FF4806404F1320410F0004548BF40426C
:105420004FF000013EE700BF42004FEAE2014FEAC1
:1054300031014FEA02701FBF12F07F4393F07F4F9C
:1054400081F06051704732F07F4208BF704793F09F
:105450007F4F04BF41F40021704730B54FF46074B2
:1054600001F0004521F000411CE700BF50EA0102B5
:1054700008BF704730B54FF000050AE050EA01025E
:1054800008BF704730B511F0004502D5404261EBCE
:1054900041014FF4806404F132045FEA915C3FF40F
:1054A000D8AE4FF003025FEADC0C18BF03325FEAAC
:1054B000DC0C18BF033202EBDC02C2F1200300FA5D
:1054C00003FC20FA02F001FA03FE40EA0E0021FA82
:1054D00002F11444BDE600BF70B54FF0FF0C4CF470
:1054E000E06C1CEA11541DBF1CEA135594EA0C0F22
:1054F00095EA0C0F00F0DEF82C4481EA030621EA5D
:105500004C5123EA4C5350EA013518BF52EA033597
:1055100041F4801143F4801338D0A0FB02CE4FF049
:105520000005E1FB02E506F00042E0FB03E54FF079
:105530000006E1FB03569CF0000F18BF4EF0010E71
:10554000A4F1FF04B6F5007F64F5407404D25FEA6D
:105550004E0E6D4146EB060642EAC62141EA555120
:105560004FEAC52040EA5E504FEACE2EB4F1FD0C62
:1055700088BFBCF5E06F1ED8BEF1004F08BF5FEAE0
:10558000500E50F1000041EB045170BD06F0004692
:1055900046EA010140EA020081EA0301B4EB5C043F
:1055A000C2BFD4EB0C0541EA045170BD41F4801137
:1055B0004FF0000E013C00F3AB8014F1360FDEBF5C
:1055C000002001F0004170BDC4F10004203C35DA38
:1055D0000C341BDC04F11404C4F1200500FA05F3BB
:1055E00020FA04F001FA05F240EA020001F000425C
:1055F00021F0004110EBD37021FA04F642EB0601D2
:105600005EEA430E08BF20EAD37070BDC4F10C04FB
:10561000C4F1200500FA04F320FA05F001FA04F2BF
:1056200040EA020001F0004110EBD37041F10001AB
:105630005EEA430E08BF20EAD37070BDC4F12005B6
:1056400000FA05F24EEA020E20FA04F301FA05F21E
:1056500043EA020321FA04F001F0004121FA04F2C6
:1056600020EA020000EBD3705EEA430E08BF20EA96
:10567000D37070BD94F0000F0FD101F000464000D0
:1056800041EB010111F4801F08BF013CF7D041EA52
:10569000060195F0000F18BF704703F00046520056
:1056A00043EB030313F4801F08BF013DF7D043EA27
:1056B0000603704794EA0C0F0CEA135518BF95EADD
:1056C0000C0F0CD050EA410618BF52EA4306D1D164
:1056D00081EA030101F000414FF0000070BD50EA83
:1056E000410606BF1046194652EA430619D094EA0D
:1056F0000C0F02D150EA013613D195EA0C0F05D1F7
:1057000052EA03361CBF104619460AD181EA03014A
:1057100001F0004141F0FE4141F470014FF0000002
:1057200070BD41F0FE4141F4780170BD70B54FF09D
:10573000FF0C4CF4E06C1CEA11541DBF1CEA13551D
:1057400094EA0C0F95EA0C0F00F0A7F8A4EB0504FF
:1057500081EA030E52EA03354FEA013100F08880F6
:105760004FEA03334FF0805545EA131343EA1263BF
:105770004FEA022245EA111545EA10654FEA002674
:105780000EF000419D4208BF964244F1FD0404F52D
:10579000407402D25B084FEA3202B61A65EB030589
:1057A0005B084FEA32024FF480104FF4002CB6EB46
:1057B000020E75EB030E22BFB61A754640EA0C00C6
:1057C0005B084FEA3202B6EB020E75EB030E22BF06
:1057D000B61A754640EA5C005B084FEA3202B6EB47
:1057E000020E75EB030E22BFB61A754640EA9C0006
:1057F0005B084FEA3202B6EB020E75EB030E22BFD6
:10580000B61A754640EADC0055EA060E18D04FEA93
:10581000051545EA16754FEA06164FEAC30343EA33
:1058200052734FEAC2025FEA1C1CC0D111F4801F00
:105830000BD141EA00014FF000004FF0004CB6E7F9
:1058400011F4801F04BF01430020B4F1FD0C88BF98
:10585000BCF5E06F3FF6AFAEB5EB030C04BFB6EBA3
:10586000020C5FEA500C50F1000041EB045170BD96
:105870000EF0004E4EEA113114EB5C04C2BFD4EBC3
:105880000C0541EA045170BD41F480114FF0000E47
:10589000013C90E645EA060E8DE60CEA135594EAC3
:1058A0000C0F08BF95EA0C0F3FF43BAF94EA0C0FC6
:1058B0000AD150EA01347FF434AF95EA0C0F7FF43B
:1058C00025AF104619462CE795EA0C0F06D152EA8F
:1058D00003353FF4FDAE1046194622E750EA410673
:1058E00018BF52EA43067FF4C5AE50EA41047FF484
:1058F0000DAF52EA43057FF4EBAE12E74FEA4102E7
:1059000012F5001215D211D56FF47873B3EB625211
:1059100012D94FEAC12343F0004343EA505311F038
:10592000004F23FA02F018BF404270474FF00000CA
:10593000704750EA013005D111F0004008BF6FF008
:10594000004070474FF00000704700BF00000000AB
:1059500080B584B004AF62B600BF00F0B7FC00F0C1
:1059600055F800F04DF900F021F900F091F800F041
:10597000C5F8234800F0BEFA4FF47A7000F008FD35
:10598000204800F0EDFE0023002240F2FF711220BB
:1059900000F0D4FA0123002240F2FF714FF482702C
:1059A00000F0CCFA0223002240F2FF7140F2916035
:1059B00000F0C4FA0021144801F0A2FF124801F0DF
:1059C00005FF00F067F94FF000024FF00003CDE94A
:1059D000022307A3D3E90023CDE9002306A3D3E9DB
:1059E0000023332000F07CF9EDE700BFAFF3008027
:1059F0002D431CEBE2361A3F0000000000A0794066
:105A000070850008280000205000002080B590B06C
:105A100000AF07F1180328220021184602F070FD9C
:105A20003B1D00221A605A609A60DA601A610223F4
:105A3000BB610123BB621023FB6202237B63002353
:105A4000BB634FF46013FB6307F11803184601F0C2
:105A5000ADFA0346002B01D000F0B6FA0F237B60AD
:105A60000223BB600023FB604FF480633B61002393
:105A70007B613B1D0221184601F01AFD0346002BF5
:105A800001D000F0A1FA00BF4037BD4680BD000044
:105A900080B500AF174B184A1A60164B08225A609F
:105AA000144B00229A60134B0022DA60114B4FF422
:105AB000C0221A610F4B4FF4E0025A610D4B0022D5
:105AC0001A760C4B00225A760A4B00229A76094B22
:105AD0000022DA76074B00221A77064B00225A770B
:105AE000044800F079FC0346002B01D000F06CFA6A
:105AF00000BF80BD280000200064004080B58AB04F
:105B000000AF07F1200300221A605A603B1D0022FB
:105B10001A605A609A60DA601A615A619A61224B7F
:105B20004FF080421A60204B00225A601E4B002228
:105B30009A601D4B4FF48052DA601B4B00221A61B1
:105B4000194B00229A61184801F08AFE0346002B87
:105B500001D000F039FA00233B6200237B6207F199
:105B600020031946104802F049FA0346002B01D0E1
:105B700000F02AFA60237B600023BB600023FB60F7
:105B800000237B613B1D00221946074801F05AFFA4
:105B90000346002B01D000F017FA034800F0C8FAC2
:105BA00000BF2837BD4680BD5000002080B500AF43
:105BB000114B124A1A60104B4FF4E1325A600E4BEF
:105BC00000229A600C4B0022DA600B4B00221A6113
:105BD000094B0C225A61084B00229A61064B0022A5
:105BE000DA61054802F068FA0346002B01D000F0A4
:105BF000EBF900BF80BD00BF9800002000440040CA
:105C000080B588B000AF07F1100300221A605A6017
:105C10009A60DA601D4B9B691C4A43F02003936134
:105C20001A4B9B6903F02003FB60FB68174B9B69D1
:105C3000164A43F004039361144B9B6903F0040379
:105C4000BB60BB68114B9B69104A43F0080393612A
:105C50000E4B9B6903F008037B607B6800220421E4
:105C60000B4801F071F904233B6101237B610023A0
:105C7000BB610223FB6107F110031946044800F0E1
:105C8000DFFF00BF2037BD4680BD00BF00100240CF
:105C9000000C014080B582B000AF09E04FF08042B7
:105CA0007B6853637B680A337B600A2000F070FBDB
:105CB0007B68B3F5805FF1DB09E04FF080427B68E1
:105CC00053637B680A3B7B600A2000F061FB7B68C2
:105CD000002BF2DC00BF00BF0837BD4680BD0000CE
:105CE000B0B598B002AFF860C7E9002300237B6528
:105CF0004FF000024FF00003C7E90E234FF00002FF
:105D00004FF00003C7E912234FF000024FF00003E9
:105D1000C7E910234FF000024FF00003C7E90C233E
:105D20000023FB620023BB6299E0534B534A0021DE
:105D3000534800F059FD0346002B01D000F044F910
:105D400000F01CFB78624D4B1B68122B40F08780E3
:105D500008214C4801F010F9474B1B78BB627A6A66
:105D60007B6DD31A1846FFF73DFB02460B46C7E989
:105D70000E23FA68BB6AD31A1846FFF743FB0246A4
:105D80000B46C7E90623D7E90E23D7E90601FFF73B
:105D9000A3FB02460B46D7E91001FFF7E7F90246DD
:105DA0000B46C7E91023D7E91223D7E90601FFF70D
:105DB000DBF902460B4610461946D7E90E23FFF7DA
:105DC000B5FC02460B46C7E90C23D7E90623D7E901
:105DD0000001FFF781FB02460B4614461D46D7E93A
:105DE0001023D7E91A01FFF777FB02460B4620463E
:105DF0002946FFF7BBF902460B4614461D46D7E974
:105E00000C23D7E91C01FFF767FB02460B4620462F
:105E10002946FFF7ABF902460B4610461946FFF735
:105E20006DFD0346FB624FF480521749F86A00F09B
:105E300048F87861D7E90623C7E912237B6A7B65B6
:105E40004FF48053009300234FF480520E49786939
:105E500000F01CF838614FF080423B695363002129
:105E6000074800F0E2FD0346002B7FF45EAF00BF61
:105E700000BF5837BD46B0BDFC000020E000002048
:105E800028000020000C014000F0FFFF80B485B026
:105E900000AFF860B9607A603B60FA68BB68D31AFB
:105EA000B9693A688A1A03FB02F27968BB68CB1AAF
:105EB00092FBF3F23B68134418461437BD4680BC8E
:105EC000704780B485B000AFF860B9607A60FA6856
:105ED000BB689A4201DABB6806E0FA687B689A42BE
:105EE00001DD7B6800E0FB6818461437BD4680BCC6
:105EF0007047000080B584B000AF78607868FFF725
:105F000027F903469AB24FF47A737968094802F088
:105F100023F90346FB73FB7B002B07D008210648BF
:105F200001F02AF84FF47A7000F032FA00BF10370F
:105F3000BD4680BD98000020000C014080B58EB0A9
:105F400000AFF860B96011461A460B46FB71134664
:105F5000BB71BB797B620023BB620123FB62FB79CF
:105F6000002B10D0FB685B0B9BB23B61FB68DB0036
:105F70009BB27B61BB685B0B9BB2BB61BB68DB0008
:105F80009BB2FB610BE0FB685B019BB23B610023B2
:105F90007B61BB685B019BB2BB610023FB6100239B
:105FA0003B6201233B6307F110031946054800F0EB
:105FB0000EFB0346002B01D000F006F800BF383777
:105FC000BD4680BD2800002080B400AF72B600BF7F
:105FD000FEE7000080B485B000AF154B9B69144A02
:105FE00043F001039361124B9B6903F00103BB6013
:105FF000BB680F4BDB690E4A43F08053D3610C4BF7
:10600000DB6903F080537B607B680A4B5B68FB6055
:10601000FB6823F0E063FB60FB6843F00073FB6008
:10602000044AFB68536000BF1437BD4680BC70470C
:10603000001002400000014080B58AB000AF7860D7
:1060400007F1140300221A605A609A60DA607B68D4
:106050001B68254A934243D1244BDB69234A43F012
:106060000073D361214BDB6903F000733B613B6933
:106070001E4B9B691D4A43F0080393611B4B9B69B0
:1060800003F00803FB60FB684FF480737B6100231F
:10609000BB610023FB6107F114031946144800F0AB
:1060A000CFFD4FF400737B610223BB6103233B628E
:1060B00007F1140319460E4800F0C2FD0D4B5B6852
:1060C0007B627B6A23F4C0437B627B6A43F0E063BC
:1060D0007B627B6A43F480437B62064A7B6A53603F
:1060E00000BF2837BD4680BD00640040001002405C
:1060F000000C01400000014080B485B000AF786022
:106100007B681B68B3F1804F0BD1084BDB69074AF2
:1061100043F00103D361054BDB6903F00103FB602E
:10612000FB6800BF1437BD4680BC704700100240BA
:1061300080B588B000AF786007F1100300221A60C4
:106140005A609A60DA607B681B68B3F1804F17D1A0
:106150000D4B9B690C4A43F0040393610A4B9B6906
:1061600003F00403FB60FB6801233B6102237B61B6
:106170000223FB6107F110031946044800F060FD9B
:1061800000BF2037BD4680BD00100240000801401E
:1061900080B588B000AF786007F1100300221A6064
:1061A0005A609A60DA607B681B681B4A93422FD161
:1061B0001A4BDB69194A43F40033D361174BDB698F
:1061C00003F40033FB60FB68144B9B69134A43F0F4
:1061D00004039361114B9B6903F00403BB60BB682C
:1061E00004233B6102237B610323FB6107F110035E
:1061F00019460B4800F024FD08233B6100237B6116
:106200000023BB6107F110031946054800F018FD93
:1062100000BF2037BD4680BD004400400010024052
:106220000008014080B400AFFEE780B400AFFEE795
:1062300080B400AFFEE780B400AFFEE780B400AFEB
:10624000FEE780B400AF00BFBD4680BC704780B49D
:1062500000AF00BFBD4680BC704780B400AF00BF38
:10626000BD4680BC704780B500AF00F075F800BF38
:1062700080BD80B400AF00BFBD4680BC7047000049
:10628000FFF7F7FF0B480C490C4A002302E0D458F3
:10629000C4500433C4188C42F9D3094A094C002372
:1062A00001E013600432A242FBD302F031F9FFF7A0
:1062B0004FFB7047000000200C000020C485000840
:1062C0000C00002008010020FEE7000080B500AFB0
:1062D000084B1B68074A43F010031360032000F0CB
:1062E0007BFC0F2000F008F8FFF774FE002318462F
:1062F00080BD00BF0020024080B582B000AF786052
:10630000124B1A68124B1B7819464FF47A73B3FB81
:10631000F1F3B2FBF3F3184600F085FC0346002BC3
:1063200001D001230EE07B680F2B0AD80022796888
:106330004FF0FF3000F05BFC064A7B6813600023DF
:1063400000E0012318460837BD4680BD000000204C
:10635000080000200400002080B400AF054B1B782B
:106360001A46054B1B681344034A136000BFBD4621
:1063700080BC7047080000200401002080B400AFFA
:10638000024B1B681846BD4680BC704704010020C4
:1063900080B584B000AF7860FFF7F0FFB8607B682D
:1063A000FB60FB68B3F1FF3F05D00A4B1B781A4630
:1063B000FB681344FB6000BFFFF7E0FF0246BB68C9
:1063C000D31AFA689A42F7D800BF00BF1037BD460B
:1063D00080BD00BF0800002080B584B000AF7860A9
:1063E0007B68002B01D10123EDE07B6893F820301E
:1063F000DBB2002B02D17868FFF71EFE7B681B68BA
:106400001A687B681B6842F001021A60FFF7B6FF4A
:10641000F86012E0FFF7B2FF0246FB68D31A0A2BBE
:106420000BD97B685B6A43F400327B685A627B68F5
:10643000052283F820200123C5E07B681B685B6888
:1064400003F00103002BE5D07B681B681A687B68AA
:106450001B6822F002021A60FFF790FFF86012E05A
:10646000FFF78CFF0246FB68D31A0A2B0BD97B6817
:106470005B6A43F400327B685A627B68052283F8CA
:10648000202001239FE07B681B685B6803F0020308
:10649000002BE5D17B681B7E012B08D17B681B6834
:1064A0001A687B681B6842F080021A6007E07B680C
:1064B0001B681A687B681B6822F080021A607B6880
:1064C0005B7E012B08D17B681B681A687B681B68A0
:1064D00042F040021A6007E07B681B681A687B681C
:1064E0001B6822F040021A607B689B7E012B08D15A
:1064F0007B681B681A687B681B6842F020021A6080
:1065000007E07B681B681A687B681B6822F0200222
:106510001A607B68DB7E012B08D17B681B681A68D8
:106520007B681B6822F010021A6007E07B681B681A
:106530001A687B681B6842F010021A607B681B7F38
:10654000012B08D17B681B681A687B681B6842F0C6
:1065500008021A6007E07B681B681A687B681B6882
:1065600022F008021A607B685B7F012B08D17B68F0
:106570001B681A687B681B6842F004021A6007E017
:106580007B681B681A687B681B6822F004021A602B
:106590007B689A687B68DB681A437B681B691A43CF
:1065A0007B685B6942EA03017B685B685A1E7B6813
:1065B0001B680A43DA617B6800225A627B68012209
:1065C00083F82020002318461037BD4680BD80B4D4
:1065D00087B000AF786039607B681B687B617B683F
:1065E00093F82030FB74FB7C012B03D0FB7C022B47
:1065F00040F0AA807B69D3F8003243F001027B6946
:10660000C3F800223B685B6903F01F03012202FA12
:1066100003F3FB607B69D3F81C22FB68DB431A4061
:106620007B69C3F81C223B68DB69002B23D17B69A3
:10663000D3F80C22FB68DB431A407B69C3F80C22B9
:106640003B68DB6819043B685B689BB23A68526937
:1066500019437B69483243F832103B689B68190440
:106660003B681B689AB23B685B690A4379694833A7
:10667000DB000B445A603B68DB69012B22D17B694C
:10668000D3F80C22FB681A437B69C3F80C223B68E1
:106690001B6819043B685B689BB23A6852691943EE
:1066A0007B69483243F832103B689B6819043B68A9
:1066B000DB689AB23B685B690A4379694833DB005F
:1066C0000B445A603B689B69002B09D17B69D3F866
:1066D0000422FB68DB431A407B69C3F8042207E00D
:1066E0007B69D3F80422FB681A437B69C3F8042250
:1066F0003B681B69002B09D17B69D3F81422FB6826
:10670000DB431A407B69C3F8142207E07B69D3F8A6
:106710001422FB681A437B69C3F814223B681B6A86
:10672000012B07D17B69D3F81C22FB681A437B69D4
:10673000C3F81C227B69D3F8003223F001027B6985
:10674000C3F80022002306E07B685B6A43F48022E2
:106750007B685A62012318461C37BD4680BC7047CF
:1067600080B584B000AF78607B6893F82030DBB2EE
:10677000012B2ED17B68022283F820207B681B68C6
:106780001A687B681B6822F001021A60FFF7F6FDA9
:10679000F86012E0FFF7F2FD0246FB68D31A0A2BFD
:1067A0000BD97B685B6A43F400327B685A627B6872
:1067B000052283F82020012312E07B681B685B68B8
:1067C00003F00103002BE5D17B6800225A6200230D
:1067D00006E07B685B6A43F400227B685A6201230F
:1067E00018461037BD4680BD80B487B000AFF86052
:1067F000B9607A603B60FB6893F82030FB75FB7DE5
:10680000012B03D0FB7D022B40F00381BB68002BE2
:106810000ED1FB681B68DB6803F00303002B16D165
:10682000FB685B6A43F40012FB685A620123F7E0DD
:10683000FB681B681B6903F00303002B07D1FB688F
:106840005B6A43F40012FB685A620123E8E0FB68CC
:106850001A68BB681B331B0113441B6803F0040256
:106860007B689A607B689B68002B0CD1FB681A6878
:10687000BB681B331B0113441B685B0DC3F30A0287
:106880007B681A600BE0FB681A68BB681B331B014E
:1068900013441B68DB0823F060427B685A60FB6886
:1068A0001A68BB681B331B0113441B6803F0020208
:1068B0007B68DA60FB681A68BB681B331B011344F2
:1068C00004331B6803F00803002B03D07B68082205
:1068D0001A610BE0FB681A68BB681B331B01134489
:1068E00004331B6803F00F027B681A61FB681A68A7
:1068F000BB681B331B01134404331B681B0ADAB249
:106900007B689A61FB681A68BB681B331B011344E0
:1069100004331B681B0C9AB27B685A61FB681A68C7
:10692000BB681B01134403F5DC731B68DAB23B68D8
:106930001A70FB681A68BB681B01134403F5DC730B
:106940001B681A0A3B680133D2B21A70FB681A68D6
:10695000BB681B01134403F5DC731B681A0C3B680E
:106960000233D2B21A70FB681A68BB681B01134469
:1069700003F5DC731B681A0E3B680333D2B21A703E
:10698000FB681A68BB681B01134403F5DE731A68C1
:106990003B680433D2B21A70FB681A68BB681B01EB
:1069A000134403F5DE731B681A0A3B680533D2B241
:1069B0001A70FB681A68BB681B01134403F5DE7389
:1069C0001B681A0C3B680633D2B21A70FB681A684F
:1069D000BB681B01134403F5DE731B681A0E3B688A
:1069E0000733D2B21A70BB68002B08D1FB681B6852
:1069F000DA68FB681B6842F02002DA6007E0FB6897
:106A00001B681A69FB681B6842F020021A610023A8
:106A100006E0FB685B6A43F48022FB685A6201234C
:106A200018461C37BD4680BC704780B485B000AFA7
:106A3000786039600023FB607B6893F82030FB723C
:106A4000FB7A012B02D0FB7A022B0FD13B68002B83
:106A500006D17B681B68DB6803F00303FB6005E07D
:106A60007B681B681B6903F00303FB60FB68184627
:106A70001437BD4680BC704780B485B000AF7860E5
:106A80007B6803F00703FB600C4BDB68BB60BA68F4
:106A90004FF6FF031340BB60FB681A02BB68134349
:106AA00043F0BF6343F40033BB60044ABB68D36068
:106AB00000BF1437BD4680BC704700BF00ED00E04A
:106AC00080B400AF044BDB681B0A03F007031846D1
:106AD000BD4680BC704700BF00ED00E080B483B0CD
:106AE00000AF03463960FB7197F90730002B0ADBD2
:106AF0003B68DAB20C4997F907301201D2B20B4465
:106B000083F800230AE03B68DAB20849FB7903F016
:106B10000F03043B1201D2B20B441A7600BF0C37AC
:106B2000BD4680BC704700BF00E100E000ED00E022
:106B300080B489B000AFF860B9607A60FB6803F098
:106B40000703FB61FB69C3F10703042B28BF042380
:106B5000BB61FB690433062B02D9FB69033B00E0F0
:106B600000237B614FF0FF32BB6902FA03F3DA4383
:106B7000BB681A407B699A404FF0FF317B6901FA8C
:106B800003F3D9437B680B40134318462437BD46B3
:106B900080BC704780B582B000AF78607B68013BF5
:106BA000B3F1807F01D301230FE00A4A7B68013BE8
:106BB00053600F214FF0FF30FFF790FF054B00228D
:106BC0009A60044B07221A60002318460837BD4616
:106BD00080BD00BF10E000E080B582B000AF7860FB
:106BE0007868FFF749FF00BF0837BD4680BD80B514
:106BF00086B000AF0346B9607A60FB7300237B6107
:106C0000FFF75EFF78617A68B9687869FFF790FFEF
:106C1000024697F90F3011461846FFF75FFF00BF95
:106C20001837BD4680BD80B582B000AF7860786807
:106C3000FFF7B0FF034618460837BD4680BD000089
:106C400080B48BB000AF7860396000237B62002392
:106C50003B6269E101227B6A02FA03F3FB613B6854
:106C60001B68FA691340BB61BA69FB699A4240F03C
:106C700058813B685B689A4A93425ED0984A934237
:106C800075D8984A934258D0964A93426FD8964AFC
:106C9000934252D0944A934269D8944A93424CD03A
:106CA000924A934263D8924A934246D0904A934282
:106CB0005DD8122B2AD8122B59D801A252F823F0F2
:106CC0003B6D0008156D0008276D0008696D000810
:106CD0006F6D00086F6D00086F6D00086F6D000824
:106CE0006F6D00086F6D00086F6D00086F6D000814
:106CF0006F6D00086F6D00086F6D00086F6D000804
:106D00006F6D00081D6D0008316D0008794A9342CF
:106D100013D02CE03B68DB683B6229E03B68DB6812
:106D200004333B6224E03B68DB6808333B621FE0CE
:106D30003B68DB680C333B621AE03B689B68002BC6
:106D400002D104233B6213E03B689B68012B05D111
:106D500008233B627B68FA691A6109E008233B62F9
:106D60007B68FA695A6103E000233B6200E000BFE0
:106D7000BB69FF2B01D87B6801E07B6804337B6132
:106D8000BB69FF2B02D87B6A9B0002E07B6A083B51
:106D90009B003B617B691A680F213B6901FA03F391
:106DA000DB431A40396A3B6901FA03F31A437B69F2
:106DB0001A603B685B6803F08053002B00F0B180E1
:106DC0004D4B9B694C4A43F0010393614A4B9B69CD
:106DD00003F00103BB60BB68484A7B6A9B0802332F
:106DE00052F82330FB607B6A03F003039B000F2201
:106DF00002FA03F3DB43FA681340FB607B68404A06
:106E0000934213D07B683F4A93420DD07B683E4A41
:106E1000934207D07B683D4A934201D1032306E0A9
:106E2000042304E0022302E0012300E000237A6A45
:106E300002F0030292009340FA681343FB602F496B
:106E40007B6A9B080233FA6841F823203B685B6841
:106E500003F48013002B06D02D4B9A682C49BB6994
:106E600013438B6006E02A4B9A68BB69DB432849D1
:106E700013408B603B685B6803F40013002B06D063
:106E8000234BDA682249BB691343CB6006E0204BF1
:106E9000DA68BB69DB431E491340CB603B685B6823
:106EA00003F40033002B06D0194B5A681849BB690C
:106EB00013434B6006E0164B5A68BB69DB43144929
:106EC00013404B603B685B6803F48033002B21D098
:106ED0000F4B1A680E49BB6913430B6021E000BFDA
:106EE00000003210000031100000221000002110BC
:106EF00000001210000011100010024000000140BC
:106F000000080140000C0140001001400014014045
:106F1000000401400B4B1A68BB69DB43094913406D
:106F20000B607B6A01337B623B681A687B6A22FADA
:106F300003F3002B7FF48EAE00BF00BF2C37BD469D
:106F400080BC70470004014080B483B000AF78601B
:106F50000B467B8013467B707B78002B03D07A88AE
:106F60007B681A6103E07B881A047B681A6100BFA2
:106F70000C37BD4680BC704780B485B000AF7860E8
:106F80000B467B807B68DB68FB607A88FB6813407C
:106F90001A04FB68D9437B880B401A437B681A614B
:106FA00000BF1437BD4680BC7047000080B586B076
:106FB00000AF78607B68002B01D1012372E27B680F
:106FC0001B6803F00103002B00F08780924B5B6885
:106FD00003F00C03042B0CD08F4B5B6803F00C0305
:106FE000082B12D18C4B5B6803F48033B3F5803FE0
:106FF0000BD1894B1B6803F40033002B6CD07B68EA
:107000005B68002B68D101234CE27B685B68B3F5B9
:10701000803F06D1804B1B687F4A43F48033136066
:107020002EE07B685B68002B0CD17B4B1B687A4A97
:1070300023F480331360784B1B68774A23F4802352
:1070400013601DE07B685B68B3F5A02F0CD1724B19
:107050001B68714A43F4802313606F4B1B686E4AB0
:1070600043F4803313600BE06B4B1B686A4A23F4D4
:1070700080331360684B1B68674A23F480231360D6
:107080007B685B68002B13D0FFF778F9386108E064
:10709000FFF774F902463B69D31A642B01D9032325
:1070A00000E25D4B1B6803F40033002BF0D014E0CA
:1070B000FFF764F9386108E0FFF760F902463B69C1
:1070C000D31A642B01D90323ECE1534B1B6803F45F
:1070D0000033002BF0D100E000BF7B681B6803F099
:1070E0000203002B63D04C4B5B6803F00C03002BB6
:1070F0000BD0494B5B6803F00C03082B1CD1464BAB
:107100005B6803F48033002B16D1434B1B6803F0FC
:107110000203002B05D07B681B69012B01D00123E2
:10712000C0E13D4B1B6823F0F8027B685B69DB0024
:10713000394913430B603AE07B681B69002B20D070
:10714000364B01221A60FFF719F9386108E0FFF7A2
:1071500015F902463B69D31A022B01D90323A1E199
:107160002D4B1B6803F00203002BF0D02A4B1B6849
:1071700023F0F8027B685B69DB00274913430B604F
:1071800015E0264B00221A60FFF7F8F8386108E096
:10719000FFF7F4F802463B69D31A022B01D9032307
:1071A00080E11D4B1B6803F00203002BF0D17B68CC
:1071B0001B6803F00803002B3AD07B689B69002B07
:1071C00019D0174B01221A60FFF7D8F8386108E090
:1071D000FFF7D4F802463B69D31A022B01D90323E7
:1071E00060E10D4B5B6A03F00203002BF0D001203D
:1071F00000F0CEFA1CE00A4B00221A60FFF7BEF83E
:1072000038610FE0FFF7BAF802463B69D31A022B48
:1072100008D9032346E100BF0010024000004242AB
:1072200080044242924B5B6A03F00203002BE9D1D7
:107230007B681B6803F00403002B00F0A68000238A
:10724000FB758B4BDB6903F08053002B0DD1884B12
:10725000DB69874A43F08053D361854BDB6903F0D8
:107260008053BB60BB680123FB75824B1B6803F432
:107270008073002B18D17F4B1B687E4A43F48073C8
:107280001360FFF77BF8386108E0FFF777F80246F4
:107290003B69D31A642B01D9032303E1754B1B68A7
:1072A00003F48073002BF0D07B68DB68012B06D1E0
:1072B0006F4B1B6A6E4A43F0010313622DE07B683B
:1072C000DB68002B0CD16A4B1B6A694A23F001036F
:1072D0001362674B1B6A664A23F0040313621CE0C7
:1072E0007B68DB68052B0CD1614B1B6A604A43F05D
:1072F000040313625E4B1B6A5D4A43F00103136291
:107300000BE05B4B1B6A5A4A23F001031362584B94
:107310001B6A574A23F0040313627B68DB68002B67
:1073200015D0FFF72BF838610AE0FFF727F802467F
:107330003B69D31A41F28832934201D90323B1E069
:107340004B4B1B6A03F00203002BEED014E0FFF757
:1073500015F838610AE0FFF711F802463B69D31AC5
:1073600041F28832934201D903239BE0404B1B6AD0
:1073700003F00203002BEED1FB7D012B05D13C4B2A
:10738000DB693B4A23F08053D3617B68DB69002BC8
:1073900000F08780364B5B6803F00C03082B61D04C
:1073A0007B68DB69022B46D1334B00221A60FEF763
:1073B000E5FF386108E0FEF7E1FF02463B69D31ABA
:1073C000022B01D903236DE0294B1B6803F00073E6
:1073D000002BF0D17B681B6AB3F5803F08D1244BAA
:1073E0005B6823F400327B689B68214913434B6040
:1073F0001F4B5B6823F474127B68196A7B685B6AB5
:107400000B431B4913434B601B4B01221A60FEF7D1
:10741000B5FF386108E0FEF7B1FF02463B69D31AB9
:10742000022B01D903233DE0114B1B6803F00073CD
:10743000002BF0D035E0104B00221A60FEF79EFFC3
:10744000386108E0FEF79AFF02463B69D31A022B27
:1074500001D9032326E0064B1B6803F00073002BC1
:10746000F0D11EE07B68DB69012B07D1012319E015
:107470000010024000700040600042420B4B5B680D
:10748000FB60FB6803F480327B681B6A9A4206D17A
:10749000FB6803F470127B685B6A9A4201D0012397
:1074A00000E0002318461837BD4680BD001002409A
:1074B00080B584B000AF786039607B68002B01D163
:1074C0000123D0E06A4B1B6803F007033A689A4235
:1074D00010D9674B1B6823F0070265493B681343CB
:1074E0000B60634B1B6803F007033A689A4201D0B4
:1074F0000123B8E07B681B6803F00203002B20D057
:107500007B681B6803F00403002B05D0594B5B68B4
:10751000584A43F4E06353607B681B6803F0080338
:10752000002B05D0534B5B68524A43F460535360C1
:10753000504B5B6823F0F0027B689B684D49134316
:107540004B607B681B6803F00103002B40D07B6815
:107550005B68012B07D1474B1B6803F40033002BFA
:1075600015D101237FE07B685B68022B07D1414B7B
:107570001B6803F00073002B09D1012373E03D4B1E
:107580001B6803F00203002B01D101236BE0394B90
:107590005B6823F003027B685B68364913434B60EA
:1075A000FEF7ECFEF8600AE0FEF7E8FE0246FB6834
:1075B000D31A41F28832934201D9032353E02D4B71
:1075C0005B6803F00C027B685B689B009A42EBD11E
:1075D000274B1B6803F007033A689A4210D2244BEA
:1075E0001B6823F0070222493B6813430B60204BC2
:1075F0001B6803F007033A689A4201D0012332E086
:107600007B681B6803F00403002B08D0194B5B68F0
:1076100023F4E0627B68DB68164913434B607B68A8
:107620001B6803F00803002B09D0124B5B6823F49E
:1076300060527B681B69DB000E4913434B6000F00E
:1076400021F802460B4B5B681B0903F00F030A4944
:10765000CB5C22FA03F3094A1360094B1B681846F6
:10766000FEF74AFE002318461037BD4680BD00BF16
:107670000020024000100240908500080000002019
:107680000400002080B487B000AF0023FB6000231B
:10769000BB6000237B6100237B6000233B611E4BAA
:1076A0005B68FB60FB6803F00C03042B02D0082B23
:1076B00003D027E0194B3B6127E0FB689B0C03F0EC
:1076C0000F03174AD35C7B60FB6803F48033002B05
:1076D00010D0114B5B685B0C03F00103114AD35CC3
:1076E000BB607B680D4A03FB02F2BB68B2FBF3F39D
:1076F0007B6104E07B680C4A02FB03F37B617B69DE
:107700003B6102E0054B3B6100BF3B6918461C37FB
:10771000BD4680BC704700BF0010024000127A00D6
:10772000A8850008B885000800093D0080B400AFB6
:10773000024B1B681846BD4680BC70470000002005
:1077400080B500AFFFF7F2FF0246054B5B681B0AEE
:1077500003F007030349CB5C22FA03F3184680BD0C
:1077600000100240A085000880B500AFFFF7DEFFE3
:107770000246054B5B68DB0A03F007030349CB5C59
:1077800022FA03F3184680BD00100240A0850008CD
:1077900080B485B000AF78600A4B1B680A4AA2FB30
:1077A00003235B0A7A6802FB03F3FB6000BFFB68FC
:1077B0005A1EFA60002BF9D100BF00BF1437BD4636
:1077C00080BC704700000020D34D621080B485B0AB
:1077D00000AF78607B6893F83D30DBB2012B01D0BD
:1077E000012332E07B68022283F83D207B681B681E
:1077F000184A93420ED07B681B68B3F1804F09D0C2
:107800007B681B68144A934204D07B681B68134A48
:10781000934211D17B681B689B6803F00703FB60F0
:10782000FB68062B10D07B681B681A687B681B6896
:1078300042F001021A6007E07B681B681A687B68E7
:107840001B6842F001021A60002318461437BD4637
:1078500080BC7047002C014000040040000800403C
:1078600080B582B000AF78607B68002B01D1012326
:1078700041E07B6893F83D30DBB2002B06D17B689A
:10788000002283F83C207868FEF736FC7B680222F1
:1078900083F83D207B681A687B68043319461046DC
:1078A00000F092F97B68012283F846207B68012270
:1078B00083F83E207B68012283F83F207B68012209
:1078C00083F840207B68012283F841207B680122F5
:1078D00083F842207B68012283F843207B680122E1
:1078E00083F844207B68012283F845207B680122CD
:1078F00083F83D20002318460837BD4680BD0000B0
:1079000080B584B000AF786039603B68002B09D146
:107910007B6893F83E30DBB2012B14BF01230023B8
:10792000DBB222E03B68042B09D17B6893F83F303F
:10793000DBB2012B14BF01230023DBB215E03B684F
:10794000082B09D17B6893F84030DBB2012B14BFC0
:1079500001230023DBB208E07B6893F84130DBB2FF
:10796000012B14BF01230023DBB2002B01D0012324
:107970005EE03B68002B04D17B68022283F83E2046
:1079800013E03B68042B04D17B68022283F83F207C
:107990000BE03B68082B04D17B68022283F840206F
:1079A00003E07B68022283F841207B681B68012288
:1079B0003968184600F0FEFA7B681B681E4A93423D
:1079C00007D17B681B685A6C7B681B6842F40042D5
:1079D0005A647B681B68184A93420ED07B681B6808
:1079E000B3F1804F09D07B681B68144A934204D0DE
:1079F0007B681B68124A934211D17B681B689B68A5
:107A000003F00703FB60FB68062B10D07B681B6844
:107A10001A687B681B6842F001021A6007E07B6805
:107A20001B681A687B681B6842F001021A60002319
:107A300018461037BD4680BD002C014000040040B0
:107A40000008004080B586B000AFF860B9607A6089
:107A50000023FB75FB6893F83C30012B01D1022316
:107A6000AEE0FB68012283F83C207B680C2B00F21F
:107A70009F8001A252F823F0AD7A0008B17B000884
:107A8000B17B0008B17B0008ED7A0008B17B0008EB
:107A9000B17B0008B17B00082F7B0008B17B000898
:107AA000B17B0008B17B00086F7B0008FB681B6896
:107AB000B968184600F0F6F8FB681B689A69FB681D
:107AC0001B6842F008029A61FB681B689A69FB68B0
:107AD0001B6822F004029A61FB681B689969BB6805
:107AE0001A69FB681B680A439A6164E0FB681B68BB
:107AF000B968184600F03CF9FB681B689A69FB6896
:107B00001B6842F400629A61FB681B689A69FB6813
:107B10001B6822F480629A61FB681B689969BB68E4
:107B20001B691A02FB681B680A439A6143E0FB6801
:107B30001B68B968184600F085F9FB681B68DA69AC
:107B4000FB681B6842F00802DA61FB681B68DA69AF
:107B5000FB681B6822F00402DA61FB681B68D969C4
:107B6000BB681A69FB681B680A43DA6123E0FB689B
:107B70001B68B968184600F0CFF9FB681B68DA6922
:107B8000FB681B6842F40062DA61FB681B68DA6913
:107B9000FB681B6822F48062DA61FB681B68D969A4
:107BA000BB681B691A02FB681B680A43DA6102E0C2
:107BB0000123FB7500BFFB68002283F83C20FB7D9E
:107BC00018461837BD4680BD80B485B000AF7860D8
:107BD00039607B681B68FB607B682F4A93420BD03F
:107BE0007B68B3F1804F07D07B682C4A934203D067
:107BF0007B682B4A934208D1FB6823F07003FB603B
:107C00003B685B68FA681343FB607B68224A9342D7
:107C10000BD07B68B3F1804F07D07B681F4A93423B
:107C200003D07B681E4A934208D1FB6823F440735B
:107C3000FB603B68DB68FA681343FB60FB6823F07A
:107C400080023B685B691343FB607B68FA681A60DB
:107C50003B689A687B68DA623B681A687B689A625C
:107C60007B680D4A934203D13B681A697B681A63AB
:107C70007B6801225A617B681B6903F00103002BBA
:107C800005D07B681B6923F001027B681A6100BF85
:107C90001437BD4680BC7047002C014000040040F2
:107CA0000008004080B487B000AF786039607B681E
:107CB0001B6A7B617B681B6A23F001027B681A6286
:107CC0007B685B683B617B689B69FB60FB6823F0BA
:107CD0007003FB60FB6823F00303FB603B681B68D9
:107CE000FA681343FB607B6923F002037B613B6806
:107CF0009B687A6913437B617B681C4A93420CD171
:107D00007B6923F008037B613B68DB687A69134376
:107D10007B617B6923F004037B617B68134A934298
:107D200011D13B6923F480733B613B6923F40073F9
:107D30003B613B685B693A6913433B613B689B6904
:107D40003A6913433B617B683A695A607B68FA6819
:107D50009A613B685A687B685A637B687A691A62E1
:107D600000BF1C37BD4680BC704700BF002C0140DF
:107D700080B487B000AF786039607B681B6A7B6134
:107D80007B681B6A23F010027B681A627B685B6861
:107D90003B617B689B69FB60FB6823F4E043FB600D
:107DA000FB6823F44073FB603B681B681B02FA68A6
:107DB0001343FB607B6923F020037B613B689B6876
:107DC0001B017A6913437B617B681D4A93420DD185
:107DD0007B6923F080037B613B68DB681B017A6968
:107DE00013437B617B6923F040037B617B68144A0A
:107DF000934213D13B6923F480633B613B6923F4D5
:107E000000633B613B685B699B003A6913433B61DC
:107E10003B689B699B003A6913433B617B683A6905
:107E20005A607B68FA689A613B685A687B689A6313
:107E30007B687A691A6200BF1C37BD4680BC7047F8
:107E4000002C014080B487B000AF786039607B6857
:107E50001B6A7B617B681B6A23F480727B681A62F1
:107E60007B685B683B617B68DB69FB60FB6823F0D8
:107E70007003FB60FB6823F00303FB603B681B6837
:107E8000FA681343FB607B6923F400737B613B68F2
:107E90009B681B027A6913437B617B681D4A93428E
:107EA0000DD17B6923F400637B613B68DB681B02B7
:107EB0007A6913437B617B6923F480637B617B6810
:107EC000144A934213D13B6923F480533B613B69CD
:107ED00023F400533B613B685B691B013A69134320
:107EE0003B613B689B691B013A6913433B617B68BB
:107EF0003A695A607B68FA68DA613B685A687B685D
:107F0000DA637B687A691A6200BF1C37BD4680BCA1
:107F1000704700BF002C014080B487B000AF78608C
:107F200039607B681B6A3B617B681B6A23F4805263
:107F30007B681A627B685B687B617B68DB69FB60DE
:107F4000FB6823F4E043FB60FB6823F44073FB60B1
:107F50003B681B681B02FA681343FB603B6923F410
:107F600000533B613B689B681B033A6913433B61C9
:107F70007B680F4A934209D17B6923F480437B617C
:107F80003B685B699B017A6913437B617B687A6913
:107F90005A607B68FA68DA613B685A687B681A64E1
:107FA0007B683A691A6200BF1C37BD4680BC7047C7
:107FB000002C014080B487B000AFF860B9607A60EF
:107FC000BB6803F01F03012202FA03F37B61FB6825
:107FD0001A6A7B69DB431A40FB681A62FB681A6AFB
:107FE000BB6803F01F03796801FA03F31A43FB68C7
:107FF0001A6200BF1C37BD4680BC704780B485B094
:1080000000AF786039607B6893F83C30012B01D178
:10801000022346E07B68012283F83C207B68022231
:1080200083F83D207B681B685B68FB607B681B688E
:108030009B68BB60FB6823F07003FB603B681B68B8
:10804000FA681343FB607B681B68FA685A607B68B8
:108050001B68164A93420ED07B681B68B3F1804FB1
:1080600009D07B681B68124A934204D07B681B6866
:10807000104A93420CD1BB6823F08003BB603B687D
:108080005B68BA681343BB607B681B68BA689A6018
:108090007B68012283F83D207B68002283F83C2026
:1080A000002318461437BD4680BC7047002C0140A1
:1080B000000400400008004080B582B000AF786046
:1080C0007B68002B01D1012342E07B6893F84130AB
:1080D000DBB2002B06D17B68002283F84020786851
:1080E000FEF756F87B68242283F841207B681B68E2
:1080F000DA687B681B6822F40052DA60786800F066
:1081000071F97B681B681A697B681B6822F49042CE
:108110001A617B681B685A697B681B6822F02A0217
:108120005A617B681B68DA687B681B6842F40052FE
:10813000DA607B6800225A647B68202283F8412041
:108140007B68202283F842207B6800225A63002348
:1081500018460837BD4680BD80B58AB002AFF860CA
:10816000B9603B601346FB8000237B61FB6893F89A
:108170004130DBB2202B75D1BB68002B02D0FB88CD
:10818000002B01D101236EE0FB6800225A64FB68DA
:10819000212283F84120FEF7F1F87861FB68FA8824
:1081A0009A84FB68FA88DA84FB689B68B3F5805F81
:1081B00008D1FB681B69002B04D10023FB61BB685D
:1081C000BB6103E0BB68FB610023BB612EE03B6841
:1081D00000937B6900228021F86800F048F803468C
:1081E000002B05D0FB68202283F8412003233AE0CE
:1081F000FB69002B0BD1BB691B881A46FB681B6807
:10820000C2F308025A60BB690233BB6107E0FB6935
:108210001A78FB681B685A60FB690133FB61FB68D5
:10822000DB8C9BB2013B9AB2FB68DA84FB68DB8C87
:108230009BB2002BCBD13B6800937B69002240218D
:10824000F86800F014F80346002B05D0FB682022E4
:1082500083F84120032306E0FB68202283F84120B5
:10826000002300E0022318462037BD4680BD80B5BC
:1082700086B000AFF860B9603B601346FB713BE02D
:108280003B6AB3F1FF3F37D0FEF778F802463B6810
:10829000D31A3A6A9A4202D33B6A002B01D10323D4
:1082A0003AE0FB681B68DB6803F00403002B23D073
:1082B000BB68802B20D0BB68402B1DD0FB681B689F
:1082C0001B6803F00803082B16D100237B61FB68B1
:1082D0001B681B687B61FB681B685B687B617B6953
:1082E000F86800F01DF8FB6808225A64FB68002259
:1082F00083F8402001230FE0FB681B681A68BB6805
:108300001340BA689A420CBF01230023DBB21A461D
:10831000FB799A42B4D0002318461837BD4680BD79
:1083200080B495B000AF78607B681B680C337B63CA
:108330007B6B53E8003F3B633B6B23F49073FB6420
:108340007B681B680C33FA6C3A64FB63F96B3A6C1C
:1083500041E80023BB63BB6B002BE5D17B681B6846
:1083600014333B623B6A53E8003FFB61FB6923F037
:108370000103BB647B681B681433BA6CFA62BB628E
:10838000B96AFA6A41E800237B627B6A002BE5D177
:108390007B681B6B012B19D17B681B680C33FB605E
:1083A000FB6853E8003FBB60BB6823F010037B64AD
:1083B0007B681B680C337A6CBA617B617969BA6936
:1083C00041E800233B613B69002BE5D17B6820221B
:1083D00083F842207B6800221A6300BF5437BD46F1
:1083E00080BC704780B584B000AF78607B681B6844
:1083F0001B6923F440517B68DA687B681B680A4379
:108400001A617B689A687B681B691A437B685B69A1
:108410001343BB607B681B68DB6823F4B05323F015
:108420000C037A681268B9680B43D3607B681B68D9
:108430005B6923F440717B689A697B681B680A4317
:108440005A617B681B682C4A934203D1FFF78CF971
:10845000F86002E0FFF774F9F860FA6813469B00D1
:1084600013449A001A447B685B689B00B2FBF3F3E9
:10847000224AA2FB03235B091901FA6813469B00F9
:1084800013449A001A447B685B689B00B2FBF3F2CA
:108490001A4BA3FB02035B09642000FB03F3D31A0E
:1084A0001B013233154AA2FB03235B0903F0F003DF
:1084B0001944FA6813469B0013449A001A447B68D7
:1084C0005B689B00B2FBF3F20C4BA3FB02035B095E
:1084D000642000FB03F3D31A1B013233074AA2FBCB
:1084E00003235B0903F00F027B681B680A449A6050
:1084F00000BF1037BD4680BD003801401F85EB51DD
:1085000003460244934200D1704703F8011BF9E788
:1085100070B500260C4D0D4C641BA410A64209D169
:1085200000F01AF800260A4D0A4C641BA410A6425B
:1085300005D170BD55F8043B98470136EEE755F874
:10854000043B98470136F2E7BC850008BC8500086B
:10855000BC850008C0850008F8B500BFF8BC08BCA1
:108560009E467047F8B500BFF8BC08BC9E467047F1
:10857000504944204170706C69636174696F6E206A
:1085800069732072756E6E696E67200A00000000C4
:1085900000000000000000000102030406070809B3
:1085A0000000000001020304020304050607080995
:0C85B0000A0B0C0D0E0F10100102000051
:0485BC00355100082D
:0485C000115100084D
:0C85C40000127A0010000000010000000E
:04000005080062810C
:00000001FF
